{
  "contractName": "Proxy",
  "abi": [
    {
      "inputs": [
        {
          "internalType": "address",
          "name": "_implementation",
          "type": "address"
        }
      ],
      "stateMutability": "nonpayable",
      "type": "constructor"
    },
    {
      "stateMutability": "payable",
      "type": "fallback",
      "payable": true
    },
    {
      "stateMutability": "payable",
      "type": "receive",
      "payable": true
    },
    {
      "inputs": [
        {
          "internalType": "address",
          "name": "_newImplementation",
          "type": "address"
        }
      ],
      "name": "changeImplementation",
      "outputs": [],
      "stateMutability": "nonpayable",
      "type": "function"
    }
  ],
  "bytecode": "0x608060405234801561001057600080fd5b5060405161020938038061020983398101604081905261002f9161005d565b600080546001600160a01b039092166001600160a01b0319928316179055600180549091163317905561008b565b60006020828403121561006e578081fd5b81516001600160a01b0381168114610084578182fd5b9392505050565b61016f8061009a6000396000f3fe6080604052600436106100225760003560e01c806317a68dd81461005d57610029565b3661002957005b600080546040516001600160a01b0390911691369082376000803683855af43d806000843e818015610059578184f35b8184fd5b34801561006957600080fd5b5061007d6100783660046100d4565b61007f565b005b6001546001600160a01b031633146100b25760405162461bcd60e51b81526004016100a990610102565b60405180910390fd5b600080546001600160a01b0319166001600160a01b0392909216919091179055565b6000602082840312156100e5578081fd5b81356001600160a01b03811681146100fb578182fd5b9392505050565b6020808252601c908201527f4f6e6c7920746865206f776e65722063616e2063616c6c20746869730000000060408201526060019056fea2646970667358221220417a37f176386bccdd169634026e18255d3c3bba51b582fd48044b6ed0186a1564736f6c63430008000033",
  "immutableReferences": {},
  "source": "// SPDX-License-Identifier: MIT\r\npragma solidity ^0.8.0;\r\n\r\ncontract Proxy {\r\n    address private implementation;\r\n    address private owner;\r\n\r\n    constructor(address _implementation) {\r\n        implementation = _implementation;\r\n        owner = msg.sender;\r\n    }\r\n\r\n    modifier onlyOwner() {\r\n        require(msg.sender == owner, \"Only the owner can call this\");\r\n        _;\r\n    }\r\n\r\n    receive() external payable {\r\n        // Handle received ether here if needed\r\n    }\r\n\r\n    fallback() external payable {\r\n        address _impl = implementation;\r\n        assembly {\r\n            let ptr := mload(0x40)\r\n            calldatacopy(ptr, 0, calldatasize())\r\n            let result := delegatecall(gas(), _impl, ptr, calldatasize(), 0, 0)\r\n            let size := returndatasize()\r\n            returndatacopy(ptr, 0, size)\r\n\r\n            switch result\r\n            case 0 {\r\n                revert(ptr, size)\r\n            }\r\n            default {\r\n                return(ptr, size)\r\n            }\r\n        }\r\n    }\r\n\r\n    function changeImplementation(address _newImplementation) public onlyOwner {\r\n        implementation = _newImplementation;\r\n    }\r\n}\r\n",
  "sourcePath": "D:\\24.07.23\\upgrade\\contracts\\Proxy.sol",
  "compiler": {
    "name": "solc",
    "version": "0.8.0+commit.c7dfd78e.Emscripten.clang"
  },
  "schemaVersion": "3.4.15",
  "updatedAt": "2023-08-24T10:52:13.955Z",
  "networkType": "ethereum",
  "devdoc": {
    "kind": "dev",
    "methods": {},
    "version": 1
  },
  "userdoc": {
    "kind": "user",
    "methods": {},
    "version": 1
  }
}