{
  "contractName": "UserStorage",
  "abi": [
    {
      "inputs": [
        {
          "internalType": "address",
          "name": "",
          "type": "address"
        }
      ],
      "name": "users",
      "outputs": [
        {
          "internalType": "address",
          "name": "userAddress",
          "type": "address"
        },
        {
          "internalType": "enum UserStorage.UserType",
          "name": "userType",
          "type": "uint8"
        },
        {
          "internalType": "string",
          "name": "email",
          "type": "string"
        },
        {
          "internalType": "string",
          "name": "phoneNumber",
          "type": "string"
        },
        {
          "internalType": "string",
          "name": "password",
          "type": "string"
        },
        {
          "internalType": "uint256",
          "name": "resetCode",
          "type": "uint256"
        },
        {
          "internalType": "uint256",
          "name": "resetCodeExpiry",
          "type": "uint256"
        },
        {
          "internalType": "string",
          "name": "organizationName",
          "type": "string"
        },
        {
          "internalType": "string",
          "name": "websiteUrl",
          "type": "string"
        },
        {
          "internalType": "string",
          "name": "organizationType",
          "type": "string"
        }
      ],
      "stateMutability": "view",
      "type": "function",
      "constant": true
    },
    {
      "inputs": [
        {
          "internalType": "string",
          "name": "_email",
          "type": "string"
        },
        {
          "internalType": "string",
          "name": "_phoneNumber",
          "type": "string"
        },
        {
          "internalType": "string",
          "name": "_password",
          "type": "string"
        },
        {
          "internalType": "string",
          "name": "_confirmPassword",
          "type": "string"
        }
      ],
      "name": "individualSignUp",
      "outputs": [],
      "stateMutability": "nonpayable",
      "type": "function"
    },
    {
      "inputs": [
        {
          "internalType": "string",
          "name": "_organizationName",
          "type": "string"
        },
        {
          "internalType": "string",
          "name": "_email",
          "type": "string"
        },
        {
          "internalType": "string",
          "name": "_phoneNumber",
          "type": "string"
        },
        {
          "internalType": "string",
          "name": "_password",
          "type": "string"
        },
        {
          "internalType": "string",
          "name": "_confirmPassword",
          "type": "string"
        },
        {
          "internalType": "string",
          "name": "_websiteUrl",
          "type": "string"
        },
        {
          "internalType": "string",
          "name": "_organizationType",
          "type": "string"
        }
      ],
      "name": "issuerSignUp",
      "outputs": [],
      "stateMutability": "nonpayable",
      "type": "function"
    },
    {
      "inputs": [],
      "name": "resetPasswordRequest",
      "outputs": [],
      "stateMutability": "nonpayable",
      "type": "function"
    },
    {
      "inputs": [
        {
          "internalType": "string",
          "name": "_email",
          "type": "string"
        },
        {
          "internalType": "string",
          "name": "_password",
          "type": "string"
        }
      ],
      "name": "signIn",
      "outputs": [],
      "stateMutability": "view",
      "type": "function",
      "constant": true
    },
    {
      "inputs": [
        {
          "internalType": "uint256",
          "name": "_resetCode",
          "type": "uint256"
        },
        {
          "internalType": "string",
          "name": "_newPassword",
          "type": "string"
        }
      ],
      "name": "resetPassword",
      "outputs": [],
      "stateMutability": "nonpayable",
      "type": "function"
    },
    {
      "inputs": [],
      "name": "getResetCode",
      "outputs": [
        {
          "internalType": "uint256",
          "name": "",
          "type": "uint256"
        }
      ],
      "stateMutability": "view",
      "type": "function",
      "constant": true
    },
    {
      "inputs": [
        {
          "internalType": "address",
          "name": "_userAddress",
          "type": "address"
        }
      ],
      "name": "getUserData",
      "outputs": [
        {
          "components": [
            {
              "internalType": "address",
              "name": "userAddress",
              "type": "address"
            },
            {
              "internalType": "enum UserStorage.UserType",
              "name": "userType",
              "type": "uint8"
            },
            {
              "internalType": "string",
              "name": "email",
              "type": "string"
            },
            {
              "internalType": "string",
              "name": "phoneNumber",
              "type": "string"
            },
            {
              "internalType": "string",
              "name": "password",
              "type": "string"
            },
            {
              "internalType": "uint256",
              "name": "resetCode",
              "type": "uint256"
            },
            {
              "internalType": "uint256",
              "name": "resetCodeExpiry",
              "type": "uint256"
            },
            {
              "internalType": "string",
              "name": "organizationName",
              "type": "string"
            },
            {
              "internalType": "string",
              "name": "websiteUrl",
              "type": "string"
            },
            {
              "internalType": "string",
              "name": "organizationType",
              "type": "string"
            }
          ],
          "internalType": "struct UserStorage.UserData",
          "name": "",
          "type": "tuple"
        }
      ],
      "stateMutability": "view",
      "type": "function",
      "constant": true
    }
  ],
  "bytecode": "0x608060405234801561001057600080fd5b506115d1806100206000396000f3fe608060405234801561001057600080fd5b50600436106100885760003560e01c80638f2604dd1161005b5780638f2604dd146100d0578063a33036ba146100ee578063a87430ba14610101578063ffc9896b1461012a57610088565b806309f75adc1461008d5780632092fb34146100975780632c162dbc146100aa5780635671210a146100bd575b600080fd5b61009561014a565b005b6100956100a5366004610f4e565b6101f0565b6100956100b8366004610eed565b610234565b6100956100cb366004611109565b6102cd565b6100d861034c565b6040516100e591906114fd565b60405180910390f35b6100956100fc366004610ff6565b610362565b61011461010f366004610ebf565b61037c565b6040516100e59a999897969594939291906111de565b61013d610138366004610ebf565b610709565b6040516100e59190611407565b33600090815260208190526040812060018101805491929161016b9061152a565b9050116101935760405162461bcd60e51b815260040161018a9061132a565b60405180910390fd5b6000620f424042336040516020016101ac9291906111be565b6040516020818303038152906040528051906020012060001c6101cf9190611565565b6004830181905590506101e442610e10611506565b82600501819055505050565b61022e600085858585604051806020016040528060008152506040518060200160405280600081525060405180602001604052806000815250610b16565b50505050565b600061023f33610709565b90508280519060200120816040015180519060200120146102725760405162461bcd60e51b815260040161018a90611356565b6000816040015151116102975760405162461bcd60e51b815260040161018a9061132a565b8180519060200120816080015180519060200120146102c85760405162461bcd60e51b815260040161018a906113dd565b505050565b336000908152602081905260409020600481015483146102ff5760405162461bcd60e51b815260040161018a90611291565b42816005015410156103235760405162461bcd60e51b815260040161018a906112fe565b81516103389060038301906020850190610d51565b506000600482018190556005909101555050565b3360009081526020819052604090206004015490565b6103736001878787878c8888610b16565b50505050505050565b600060208190529081526040902080546001820180546001600160a01b03831693600160a01b90930460ff169291906103b49061152a565b80601f01602080910402602001604051908101604052809291908181526020018280546103e09061152a565b801561042d5780601f106104025761010080835404028352916020019161042d565b820191906000526020600020905b81548152906001019060200180831161041057829003601f168201915b5050505050908060020180546104429061152a565b80601f016020809104026020016040519081016040528092919081815260200182805461046e9061152a565b80156104bb5780601f10610490576101008083540402835291602001916104bb565b820191906000526020600020905b81548152906001019060200180831161049e57829003601f168201915b5050505050908060030180546104d09061152a565b80601f01602080910402602001604051908101604052809291908181526020018280546104fc9061152a565b80156105495780601f1061051e57610100808354040283529160200191610549565b820191906000526020600020905b81548152906001019060200180831161052c57829003601f168201915b50505050509080600401549080600501549080600601805461056a9061152a565b80601f01602080910402602001604051908101604052809291908181526020018280546105969061152a565b80156105e35780601f106105b8576101008083540402835291602001916105e3565b820191906000526020600020905b8154815290600101906020018083116105c657829003601f168201915b5050505050908060070180546105f89061152a565b80601f01602080910402602001604051908101604052809291908181526020018280546106249061152a565b80156106715780601f1061064657610100808354040283529160200191610671565b820191906000526020600020905b81548152906001019060200180831161065457829003601f168201915b5050505050908060080180546106869061152a565b80601f01602080910402602001604051908101604052809291908181526020018280546106b29061152a565b80156106ff5780601f106106d4576101008083540402835291602001916106ff565b820191906000526020600020905b8154815290600101906020018083116106e257829003601f168201915b505050505090508a565b610711610dd5565b6001600160a01b03828116600090815260208181526040918290208251610140810190935280549384168352919290830190600160a01b900460ff16600181111561076c57634e487b7160e01b600052602160045260246000fd5b600181111561078b57634e487b7160e01b600052602160045260246000fd5b815260200160018201805461079f9061152a565b80601f01602080910402602001604051908101604052809291908181526020018280546107cb9061152a565b80156108185780601f106107ed57610100808354040283529160200191610818565b820191906000526020600020905b8154815290600101906020018083116107fb57829003601f168201915b505050505081526020016002820180546108319061152a565b80601f016020809104026020016040519081016040528092919081815260200182805461085d9061152a565b80156108aa5780601f1061087f576101008083540402835291602001916108aa565b820191906000526020600020905b81548152906001019060200180831161088d57829003601f168201915b505050505081526020016003820180546108c39061152a565b80601f01602080910402602001604051908101604052809291908181526020018280546108ef9061152a565b801561093c5780601f106109115761010080835404028352916020019161093c565b820191906000526020600020905b81548152906001019060200180831161091f57829003601f168201915b5050505050815260200160048201548152602001600582015481526020016006820180546109699061152a565b80601f01602080910402602001604051908101604052809291908181526020018280546109959061152a565b80156109e25780601f106109b7576101008083540402835291602001916109e2565b820191906000526020600020905b8154815290600101906020018083116109c557829003601f168201915b505050505081526020016007820180546109fb9061152a565b80601f0160208091040260200160405190810160405280929190818152602001828054610a279061152a565b8015610a745780601f10610a4957610100808354040283529160200191610a74565b820191906000526020600020905b815481529060010190602001808311610a5757829003601f168201915b50505050508152602001600882018054610a8d9061152a565b80601f0160208091040260200160405190810160405280929190818152602001828054610ab99061152a565b8015610b065780601f10610adb57610100808354040283529160200191610b06565b820191906000526020600020905b815481529060010190602001808311610ae957829003601f168201915b5050505050815250509050919050565b3360009081526020819052604090206001018054610b339061152a565b159050610b525760405162461bcd60e51b815260040161018a9061137d565b60008551118015610b64575060008451115b610b805760405162461bcd60e51b815260040161018a906112bd565b8380519060200120858051906020012014610bad5760405162461bcd60e51b815260040161018a906113ad565b604051806101400160405280336001600160a01b03168152602001896001811115610be857634e487b7160e01b600052602160045260246000fd5b815260208082018a905260408083018a90526060830189905260006080840181905260a0840181905260c0840188905260e08401879052610100909301859052338352828252909120825181546001600160a01b0319166001600160a01b0390911617808255918301519091829060ff60a01b1916600160a01b836001811115610c8257634e487b7160e01b600052602160045260246000fd5b021790555060408201518051610ca2916001840191602090910190610d51565b5060608201518051610cbe916002840191602090910190610d51565b5060808201518051610cda916003840191602090910190610d51565b5060a0820151600482015560c0820151600582015560e08201518051610d0a916006840191602090910190610d51565b506101008201518051610d27916007840191602090910190610d51565b506101208201518051610d44916008840191602090910190610d51565b5050505050505050505050565b828054610d5d9061152a565b90600052602060002090601f016020900481019282610d7f5760008555610dc5565b82601f10610d9857805160ff1916838001178555610dc5565b82800160010185558215610dc5579182015b82811115610dc5578251825591602001919060010190610daa565b50610dd1929150610e29565b5090565b60408051610140810190915260008082526020820190815260200160608152602001606081526020016060815260200160008152602001600081526020016060815260200160608152602001606081525090565b5b80821115610dd15760008155600101610e2a565b600082601f830112610e4e578081fd5b813567ffffffffffffffff80821115610e6957610e69611585565b604051601f8301601f191681016020018281118282101715610e8d57610e8d611585565b604052828152848301602001861015610ea4578384fd5b82602086016020830137918201602001929092529392505050565b600060208284031215610ed0578081fd5b81356001600160a01b0381168114610ee6578182fd5b9392505050565b60008060408385031215610eff578081fd5b823567ffffffffffffffff80821115610f16578283fd5b610f2286838701610e3e565b93506020850135915080821115610f37578283fd5b50610f4485828601610e3e565b9150509250929050565b60008060008060808587031215610f63578182fd5b843567ffffffffffffffff80821115610f7a578384fd5b610f8688838901610e3e565b95506020870135915080821115610f9b578384fd5b610fa788838901610e3e565b94506040870135915080821115610fbc578384fd5b610fc888838901610e3e565b93506060870135915080821115610fdd578283fd5b50610fea87828801610e3e565b91505092959194509250565b600080600080600080600060e0888a031215611010578283fd5b873567ffffffffffffffff80821115611027578485fd5b6110338b838c01610e3e565b985060208a0135915080821115611048578485fd5b6110548b838c01610e3e565b975060408a0135915080821115611069578485fd5b6110758b838c01610e3e565b965060608a013591508082111561108a578485fd5b6110968b838c01610e3e565b955060808a01359150808211156110ab578485fd5b6110b78b838c01610e3e565b945060a08a01359150808211156110cc578384fd5b6110d88b838c01610e3e565b935060c08a01359150808211156110ed578283fd5b506110fa8a828b01610e3e565b91505092959891949750929550565b6000806040838503121561111b578182fd5b82359150602083013567ffffffffffffffff811115611138578182fd5b610f4485828601610e3e565b6001600160a01b03169052565b6002811061116f57634e487b7160e01b600052602160045260246000fd5b9052565b60008151808452815b818110156111985760208185018101518683018201520161117c565b818111156111a95782602083870101525b50601f01601f19169290920160200192915050565b91825260601b6bffffffffffffffffffffffff1916602082015260340190565b6001600160a01b038b16815260006101406111fc602084018d611151565b80604084015261120e8184018c611173565b90508281036060840152611222818b611173565b90508281036080840152611236818a611173565b90508760a08401528660c084015282810360e08401526112568187611173565b905082810361010084015261126b8186611173565b90508281036101208401526112808185611173565b9d9c50505050505050505050505050565b602080825260129082015271496e76616c696420726573657420636f646560701b604082015260600190565b60208082526021908201527f50617373776f7264206669656c6473206d757374206e6f7420626520656d70746040820152607960f81b606082015260800190565b60208082526012908201527114995cd95d0818dbd91948195e1c1a5c995960721b604082015260600190565b602080825260129082015271055736572206e6f74207369676e65642075760741b604082015260600190565b6020808252600d908201526c125b9d985b1a5908195b585a5b609a1b604082015260600190565b60208082526016908201527505573657220616c7265616479207369676e65642075760541b604082015260600190565b6020808252601690820152750a0c2e6e6eedee4c8e640c8de40dcdee840dac2e8c6d60531b604082015260600190565b60208082526010908201526f125b9d985b1a59081c185cdcdddbdc9960821b604082015260600190565b60006020825261141b602083018451611144565b602083015161142d6040840182611151565b50604083015161014080606085015261144a610160850183611173565b91506060850151601f19808685030160808701526114688483611173565b935060808701519150808685030160a08701526114858483611173565b935060a087015160c087015260c087015160e087015260e087015191506101008187860301818801526114b88584611173565b9450808801519250506101208187860301818801526114d78584611173565b9088015187820390920184880152935090506114f38382611173565b9695505050505050565b90815260200190565b6000821982111561152557634e487b7160e01b81526011600452602481fd5b500190565b60028104600182168061153e57607f821691505b6020821081141561155f57634e487b7160e01b600052602260045260246000fd5b50919050565b60008261158057634e487b7160e01b81526012600452602481fd5b500690565b634e487b7160e01b600052604160045260246000fdfea2646970667358221220e45f3a6c9b6f621e92f8ca829c83477fc84a0b8472f3bf489698fb7b3419cf5e64736f6c63430008000033",
  "immutableReferences": {},
  "source": "// SPDX-License-Identifier: MIT\r\npragma solidity ^0.8.0;\r\n\r\ncontract UserStorage {\r\n    enum UserType { Individual, Issuer }\r\n\r\n    struct UserData {\r\n        address userAddress;\r\n        UserType userType;\r\n        string email;\r\n        string phoneNumber;\r\n        string password;\r\n        uint256 resetCode;\r\n        uint256 resetCodeExpiry;\r\n        string organizationName; \r\n        string websiteUrl; \r\n        string organizationType; \r\n    }\r\n\r\n    mapping(address => UserData) public users;\r\n\r\n    function individualSignUp(\r\n        string memory _email,\r\n        string memory _phoneNumber,\r\n        string memory _password,\r\n        string memory _confirmPassword\r\n    ) public {\r\n        signUp(UserType.Individual, _email, _phoneNumber, _password, _confirmPassword, \"\", \"\", \"\");\r\n    }\r\n\r\n    function issuerSignUp(\r\n        string memory _organizationName,\r\n        string memory _email,\r\n        string memory _phoneNumber,\r\n        string memory _password,\r\n        string memory _confirmPassword,\r\n        string memory _websiteUrl,\r\n        string memory _organizationType\r\n    ) public {\r\n        signUp(UserType.Issuer, _email, _phoneNumber, _password, _confirmPassword, _organizationName, _websiteUrl, _organizationType);\r\n    }\r\n\r\n    function signUp(\r\n        UserType _userType,\r\n        string memory _email,\r\n        string memory _phoneNumber,\r\n        string memory _password,\r\n        string memory _confirmPassword,\r\n        string memory _organizationName,\r\n        string memory _websiteUrl,\r\n        string memory _organizationType\r\n    ) internal {\r\n        require(\r\n            bytes(users[msg.sender].email).length == 0,\r\n            \"User already signed up\"\r\n        );\r\n        require(bytes(_password).length > 0 && bytes(_confirmPassword).length > 0, \"Password fields must not be empty\");\r\n        require(\r\n            keccak256(bytes(_password)) == keccak256(bytes(_confirmPassword)),\r\n            \"Passwords do not match\"\r\n        );\r\n\r\n        users[msg.sender] = UserData({\r\n            userAddress: msg.sender,\r\n            userType: _userType,\r\n            email: _email,\r\n            phoneNumber: _phoneNumber,\r\n            password: _password,\r\n            resetCode: 0,\r\n            resetCodeExpiry: 0,\r\n            organizationName: _organizationName,\r\n            websiteUrl: _websiteUrl,\r\n            organizationType: _organizationType\r\n        });\r\n    }\r\n\r\n    function resetPasswordRequest() public {\r\n        UserData storage user = users[msg.sender];\r\n        require(bytes(user.email).length > 0, \"User not signed up\");\r\n\r\n        uint256 seed = uint256(\r\n            keccak256(abi.encodePacked(block.timestamp, msg.sender))\r\n        ) % 1000000;\r\n        user.resetCode = seed;\r\n        user.resetCodeExpiry = block.timestamp + 3600;\r\n    }\r\n\r\n    function signIn(string memory _email, string memory _password) public view {\r\n        UserData memory user = getUserData(msg.sender);\r\n\r\n        require(\r\n            keccak256(bytes(user.email)) == keccak256(bytes(_email)),\r\n            \"Invalid email\"\r\n        );\r\n        require(bytes(user.email).length > 0, \"User not signed up\");\r\n        require(\r\n            keccak256(bytes(user.password)) == keccak256(bytes(_password)),\r\n            \"Invalid password\"\r\n        );\r\n    }\r\n\r\n    function resetPassword(uint256 _resetCode, string memory _newPassword) public {\r\n        UserData storage user = users[msg.sender];\r\n        require(user.resetCode == _resetCode, \"Invalid reset code\");\r\n        require(user.resetCodeExpiry >= block.timestamp, \"Reset code expired\");\r\n\r\n        user.password = _newPassword;\r\n        user.resetCode = 0; \r\n        user.resetCodeExpiry = 0; \r\n    }\r\n\r\n    function getResetCode() public view returns (uint256) {\r\n        return users[msg.sender].resetCode;\r\n    }\r\n\r\n    function getUserData(address _userAddress) public view returns (UserData memory) {\r\n        return users[_userAddress];\r\n    }\r\n}\r\n",
  "sourcePath": "D:\\24.07.23\\upgrade\\contracts\\UserStorage.sol",
  "compiler": {
    "name": "solc",
    "version": "0.8.0+commit.c7dfd78e.Emscripten.clang"
  },
  "schemaVersion": "3.4.15",
  "updatedAt": "2023-08-24T10:52:13.942Z",
  "networkType": "ethereum",
  "devdoc": {
    "kind": "dev",
    "methods": {},
    "version": 1
  },
  "userdoc": {
    "kind": "user",
    "methods": {},
    "version": 1
  }
}